:020000040000FA
:100000001928FF3FFF3FFF3F7E1480310B1F092857
:100010000A2817282100111C0E280F281728200055
:10002000111C1328142817288231952280317E1044
:1000300009001A283D308400803085006C3086002D
:10004000203087000030FF0084308231B0228031C0
:100050009B3084008130850020308600003087008E
:100060000030FF0040308231B0228031FC01FD01C0
:10007000EB01EC017E102000DB295C3466344D344A
:100080001034DD34763445341034DD346634453490
:100090000F345C3466344D3410341F3477344D34AF
:1000A0001034DB34553445341034DE346634453492
:1000B0000F349934353441340F3499343534413464
:1000C0000D345934153435340734983415343D34EF
:1000D0000B349A34353439340B34DB34153435343D
:1000E0000A341834153431340A34993405342D3433
:1000F00008341434D434283408341434D434283430
:100100000734D434B3341C3403341334B4342034BB
:1001100006341334E4342C3406341334D434283401
:1001200001341234D434183402341234F434243404
:1001300003341134F43428340434D134B33428343F
:1001400003341334B434203403341434B4341C343E
:100150000334D434B3341C3403341534D434243449
:1001600003341634B434203403341434B4341C341B
:100170000334D434B3341C3403349334B3341834D8
:10018000003420006B1CC528C628372942307C0269
:100190000318CB28CC2834297D08E0006008FB0038
:1001A00005307B02031CD528D628D8280330FB0253
:1001B0000230F0000030F1007C08E000E10160084E
:1001C000F2006108F30081313C2180317008200089
:1001D000E2007108E300E235E30DE235E30D6C3037
:1001E000E4002030E5006208640786006308653D8E
:1001F0008700403FE600413FE700423FE800433FC1
:10020000E9000630EA006A08F0007B08043C82310D
:100210005F228031890A20001129E936E80CE70CB9
:10022000E60C890B0D2966083F390907203E860038
:100230008701403FF900413FFA008231C9228031F5
:100240008231D922803101302000E0006008FD07B2
:100250007D080739031D2D292E293729FD0101307D
:10026000E0006008FC073729FC01EB01EC010130DC
:10027000EB070030EC3D0800F601F11F4029412951
:100280004829F009F109F00A0319F10AF601F60A02
:10029000F31F4B294C295529F209F309F20A0319D6
:1002A000F30A0130F4007408F606F701F80170084B
:1002B000710403195C295D298C29F501F50A692966
:1002C0000130F035F10D890B61290130F40074081B
:1002D000F507F11F6C296D2960290130F735F80DFC
:1002E000890B6E2971087302031D78297008720248
:1002F000031C7B297C2981297008F2027108F33BD9
:1003000077140130F136F00C890B82290130F502A7
:10031000031D8B298C296D297608031990299129B1
:100320009629F709F809F70A0319F80A7808F1007D
:100330007708F0000800DC341D345E3416341D34B8
:100340001534EE341334CF341234D1340F34EE3448
:100350000E344D340D34D9340B348E340C342F34E8
:100360000B34F734093467340934E0340834613429
:100370000834E834073477340734A6340634473475
:100380000634EC3405349734053447340534FB34F3
:10039000043470340434F4340334BB34033485340B
:1003A000033453340334F6340234CB3402347D3412
:1003B000023438340234823185228131C130210047
:1003C000A4000030A5008231C32281318B170B17A6
:1003D00020000C18EC29ED29E8298231D622813140
:1003E00000302100A400A500823116228131823123
:1003F000D3228131E829192820009901D8309700AB
:10040000F0309600111017082100A30020001608F4
:100410002100A2001114DC30A4000230A5008231BA
:10042000C322813131302000980008002000181DBF
:100430001A2A1B2A262A18102100250820009700B6
:10044000210024082000960018142E2A21002508D7
:1004500020009700210024082000960008003B009F
:100460009C019D0130309E009F01A00192019101ED
:100470009401FA30930001309600F4309500980111
:10048000FA3097009A01990140309B000800220041
:100490008C013D3021008C00143023008C00013091
:1004A00024008C002100951325008C013730260094
:1004B0008C003F3027008C0022009D010800F300D3
:1004C000F201731C642A652A692A7008F100710818
:1004D000F2070310F00D0310F30C7308031D712ACB
:1004E000722A612A720808002000181D782A792AC9
:1004F000802A181071089700700896001814842A32
:1005000071089700700896000800823147228231F6
:100510008231BC2282318231CF22823182312F223C
:1005200082318131FC21823108002000111021002C
:100530002308F1002208F0008231742282318231D6
:10054000A322823108002100200821040319A92ACE
:10055000AA2AAF2A21088A0020080A00823108004E
:10056000FE0012001E000130FE020030FF3B7F083B
:100570007E04031DB12A00346830210099009801DF
:1005800022009601080021002508A1002408A000EF
:1005900008007A083B00960079089500080016309C
:1005A0002100970008002000181408003B009B174A
:0A05B00008003B009F170800080038
:020000040001F9
:10000000FF3FFF3FFF3FFF3FFF3F00205030E43FF7
:08001000FF3EDE31281AFD3F1E
:00000001FF
