:020000040000FA
:02000000FE2BD5
:1007A000FF3FFF3FFF3FFF3F8B0183168C019F01FF
:1007B00003308500831285010800D42383120511BC
:1007C0000630F2001330F100AD30F000F00BE62BF4
:1007D000F10BE62BF20BE62BED2B83120515063001
:1007E000F2001330F100AD30F000F00BF52BF10BFF
:1007F000F52BF20BF52BFC2BDE2B00288301DD2BD8
:104000000000FF3FFF3FFF3FFF3FFF3F4022F53CE7
:10401000FF3F000000000000000000000000000062
:104020000000000000000000000000000000000090
:104030000000000000000000000000000000000080
:104040000000000000000000000000000000000070
:104050000000000000000000000000000000000060
:104060000000000000000000000000000000000050
:104070000000000000000000000000000000000040
:104080000000000000000000000000000000000030
:104090000000000000000000000000000000000020
:1040A0000000000000000000000000000000000010
:1040B0000000000000000000000000000000000000
:1040C00000000000000000000000000000000000F0
:1040D00000000000000000000000000000000000E0
:1040E00000000000000000000000000000000000D0
:1040F00000000000000000000000000000000000C0
:1041000000000000000000000000000000000000AF
:10411000000000000000000000000000000000009F
:10412000000000000000000000000000000000008F
:10413000000000000000000000000000000000007F
:10414000000000000000000000000000000000006F
:10415000000000000000000000000000000000005F
:10416000000000000000000000000000000000004F
:10417000000000000000000000000000000000003F
:10418000000000000000000000000000000000002F
:10419000000000000000000000000000000000001F
:1041A000000000000000000000000000000000000F
:1041B00000000000000000000000000000000000FF
:1041C00000000000000000000000000000000000EF
:1041D00000000000000000000000000000000000DF
:1041E00000000000000000000000000000000000CF
:1041F00000000000000000000000000000000000BF
:00000001FF
