:020000040000FA
:100000000E28FF3FFF3FFF3FFE00030EF0000A08EF
:10001000F100831203137F08F20033280F288301B5
:1000200087281128FF0000308A007F0882071728E0
:100030005A2890288312031785013E308316031334
:1000400085003230831603178500831203178C0155
:100050008316031381170530831203178D0083164F
:100060000317880108008B1E362837283C280B1DF3
:100070003A283B283C287A20720883120313FF0099
:1000800071088A00700E8300FE0E7E0E0900831632
:1000900003130108C039373881003D308312031340
:1000A00081003D30F5007508F7000B118B1602300A
:1000B00081200800031083120317051C0314031882
:1000C0006228662883120317051469288312031710
:1000D000051008001030831603138F0083160317D2
:1000E0008901080076080319762877287928760888
:1000F000122008000B11770883120313810072206D
:100100000800F4007408F3007308F60008008C205F
:10011000013081208A280E281A206A2047200800F2
:020120000800D5
:10400000FF3FFF3FFF3FFF3FFF3FFF3F0415F63FEE
:10401000BF24613E0000000000000000000000001E
:104020000000000000000000000000000000000090
:104030000000000000000000000000000000000080
:104040000000000000000000000000000000000070
:104050000000000000000000000000000000000060
:104060000000000000000000000000000000000050
:104070000000000000000000000000000000000040
:104080000000000000000000000000000000000030
:104090000000000000000000000000000000000020
:1040A0000000000000000000000000000000000010
:1040B0000000000000000000000000000000000000
:1040C00000000000000000000000000000000000F0
:1040D00000000000000000000000000000000000E0
:1040E00000000000000000000000000000000000D0
:1040F00000000000000000000000000000000000C0
:1041000000000000000000000000000000000000AF
:10411000000000000000000000000000000000009F
:10412000000000000000000000000000000000008F
:10413000000000000000000000000000000000007F
:10414000000000000000000000000000000000006F
:10415000000000000000000000000000000000005F
:10416000000000000000000000000000000000004F
:10417000000000000000000000000000000000003F
:10418000000000000000000000000000000000002F
:10419000000000000000000000000000000000001F
:1041A000000000000000000000000000000000000F
:1041B00000000000000000000000000000000000FF
:1041C00000000000000000000000000000000000EF
:1041D00000000000000000000000000000000000DF
:1041E00000000000000000000000000000000000CF
:1041F00000000000000000000000000000000000BF
:00000001FF
