:020000040000FA
:10000000A304020A1000A304F30BFF0FFF0FFF0F5E
:10001000FF0FFF0FFF0FFF0FFF0FFF0FFF0FFF0F70
:10002000FF0FFF0FFF0FFF0FFF0FFF0FFF0FFF0F60
:10003000FF0FFF0FFF0FFF0FFF0FFF0FFF0FFF0F50
:10004000FF0FFF0FFF0FFF0FFF0FFF0FFF0FFF0F40
:1003E000FF0FFF0FFF0FA00C100029006800000C8A
:1003F000080011006A0010002805FD0BA304000A84
:10040000FF0FFF0FFF0FFF0FFF0FFF0FFF0FFF0F7C
:10041000FF0FFF0FFF0FFF0FFF0FFF0FFF0FFF0F6C
:10042000FF0FFF0FFF0FFF0FFF0FFF0FFF0FFF0F5C
:10043000FF0FFF0FFF0FFF0FFF0FFF0FFF0FFF0F4C
:1007F000FF0FFF0FFF0FFF0FFF0FFF0FFF0F0E0C7D
:10080000FF0FFF0FFF0FFF0FFF0FFF0FFF0FFF0F78
:10081000FF0FFF0FFF0FFF0FFF0FFF0FFF0FFF0F68
:10082000FF0FFF0FFF0FFF0FFF0FFF0FFF0FFF0F58
:10083000FF0FFF0FFF0FFF0FFF0FFF0FFF0FFF0F48
:10084000FF0FFF0FFF0FFF0FFF0FFF0FFF0FFF0F38
:10085000FF0FFF0FFF0FFF0FFF0FFF0FFF0FFF0F28
:10086000FF0FFF0FFF0FFF0FFF0FFF0FFF0FFF0F18
:10087000FF0FFF0FFF0FFF0FFF0FFF0FFF0FFF0F08
:10088000FF0FFF0FFF0FFF0F0E0CFF0FFF0FFF0FEC
:10089000FF0FFF0FFF0FFF0FFF0FFF0FFF0FFF0FE8
:1008A000FF0FFF0FFF0FFF0FFF0FFF0FFF0FFF0FD8
:1008B000FF0FFF0FFF0FFF0FFF0FFF0FFF0FFF0FC8
:1008C000FF0FFF0FFF0FFF0FFF0FFF0FFF0FFF0FB8
:101FF000FF0FFF0FFF0FFF0FFF0FFF0FFF0FB50EBC
:00000001FF
